{
  "contractName": "Complaint",
  "abi": [
    {
      "inputs": [],
      "stateMutability": "nonpayable",
      "type": "constructor"
    },
    {
      "anonymous": false,
      "inputs": [
        {
          "indexed": false,
          "internalType": "uint256",
          "name": "id",
          "type": "uint256"
        }
      ],
      "name": "submitEvent",
      "type": "event"
    },
    {
      "inputs": [
        {
          "internalType": "address",
          "name": "",
          "type": "address"
        }
      ],
      "name": "authors",
      "outputs": [
        {
          "internalType": "address",
          "name": "",
          "type": "address"
        }
      ],
      "stateMutability": "view",
      "type": "function",
      "constant": true
    },
    {
      "inputs": [
        {
          "internalType": "uint256",
          "name": "",
          "type": "uint256"
        },
        {
          "internalType": "uint256",
          "name": "",
          "type": "uint256"
        }
      ],
      "name": "entries",
      "outputs": [
        {
          "internalType": "uint256",
          "name": "id",
          "type": "uint256"
        },
        {
          "internalType": "string",
          "name": "name",
          "type": "string"
        },
        {
          "internalType": "uint256",
          "name": "capa",
          "type": "uint256"
        },
        {
          "internalType": "uint256",
          "name": "entryType",
          "type": "uint256"
        },
        {
          "internalType": "uint256",
          "name": "product",
          "type": "uint256"
        },
        {
          "internalType": "address",
          "name": "reporter",
          "type": "address"
        },
        {
          "internalType": "uint256",
          "name": "site",
          "type": "uint256"
        },
        {
          "internalType": "string",
          "name": "description",
          "type": "string"
        },
        {
          "internalType": "uint256",
          "name": "impact",
          "type": "uint256"
        },
        {
          "internalType": "uint256",
          "name": "linkedComplaint",
          "type": "uint256"
        }
      ],
      "stateMutability": "view",
      "type": "function",
      "constant": true
    },
    {
      "inputs": [],
      "name": "entriesCount",
      "outputs": [
        {
          "internalType": "uint256",
          "name": "",
          "type": "uint256"
        }
      ],
      "stateMutability": "view",
      "type": "function",
      "constant": true
    },
    {
      "inputs": [],
      "name": "getEntriesCount",
      "outputs": [
        {
          "internalType": "uint256",
          "name": "",
          "type": "uint256"
        }
      ],
      "stateMutability": "view",
      "type": "function",
      "constant": true
    },
    {
      "inputs": [
        {
          "internalType": "string",
          "name": "_name",
          "type": "string"
        },
        {
          "internalType": "uint256",
          "name": "_capa",
          "type": "uint256"
        },
        {
          "internalType": "uint256",
          "name": "_entryType",
          "type": "uint256"
        },
        {
          "internalType": "uint256",
          "name": "_product",
          "type": "uint256"
        },
        {
          "internalType": "address",
          "name": "_reporter",
          "type": "address"
        },
        {
          "internalType": "uint256",
          "name": "_site",
          "type": "uint256"
        },
        {
          "internalType": "string",
          "name": "_description",
          "type": "string"
        },
        {
          "internalType": "uint256",
          "name": "_impact",
          "type": "uint256"
        },
        {
          "internalType": "uint256",
          "name": "_linkedComplaint",
          "type": "uint256"
        }
      ],
      "name": "submitComplaintEntry",
      "outputs": [],
      "stateMutability": "nonpayable",
      "type": "function"
    },
    {
      "inputs": [
        {
          "internalType": "uint256",
          "name": "complaintIndex",
          "type": "uint256"
        }
      ],
      "name": "getComplaint",
      "outputs": [
        {
          "components": [
            {
              "internalType": "uint256",
              "name": "id",
              "type": "uint256"
            },
            {
              "internalType": "string",
              "name": "name",
              "type": "string"
            },
            {
              "internalType": "uint256",
              "name": "capa",
              "type": "uint256"
            },
            {
              "internalType": "uint256",
              "name": "entryType",
              "type": "uint256"
            },
            {
              "internalType": "uint256",
              "name": "product",
              "type": "uint256"
            },
            {
              "internalType": "address",
              "name": "reporter",
              "type": "address"
            },
            {
              "internalType": "uint256",
              "name": "site",
              "type": "uint256"
            },
            {
              "internalType": "string",
              "name": "description",
              "type": "string"
            },
            {
              "internalType": "uint256",
              "name": "impact",
              "type": "uint256"
            },
            {
              "internalType": "uint256",
              "name": "linkedComplaint",
              "type": "uint256"
            }
          ],
          "internalType": "struct Complaint.complaintEntry",
          "name": "",
          "type": "tuple"
        }
      ],
      "stateMutability": "view",
      "type": "function",
      "constant": true
    },
    {
      "inputs": [
        {
          "internalType": "uint256",
          "name": "complaintIndex",
          "type": "uint256"
        }
      ],
      "name": "getName",
      "outputs": [
        {
          "internalType": "string",
          "name": "",
          "type": "string"
        }
      ],
      "stateMutability": "view",
      "type": "function",
      "constant": true
    },
    {
      "inputs": [
        {
          "internalType": "uint256",
          "name": "complaintIndex",
          "type": "uint256"
        }
      ],
      "name": "getId",
      "outputs": [
        {
          "internalType": "uint256",
          "name": "",
          "type": "uint256"
        }
      ],
      "stateMutability": "view",
      "type": "function",
      "constant": true
    },
    {
      "inputs": [
        {
          "internalType": "uint256",
          "name": "complaintIndex",
          "type": "uint256"
        }
      ],
      "name": "getLinkedComplaint",
      "outputs": [
        {
          "internalType": "uint256",
          "name": "",
          "type": "uint256"
        }
      ],
      "stateMutability": "view",
      "type": "function",
      "constant": true
    }
  ],
  "bytecode": "0x60806040526001600460006101000a81548160ff0219169083151502179055503480156200002c57600080fd5b50620000ca6040518060400160405280600b81526020017f436f6d706c61696e742031000000000000000000000000000000000000000000815250600080600373f0b16e178270fe7e0d42da2151ef99ba5a50b6cc6130396040518060400160405280601b81526020017f446973706f7361626c65206b6974206c757265206661696c7572650000000000815250600360016200022960201b60201c565b620001686040518060400160405280600b81526020017f436f6d706c61696e742032000000000000000000000000000000000000000000815250607b6001600373f0b16e178270fe7e0d42da2151ef99ba5a50b6cc6130396040518060400160405280601b81526020017f70617469656e74206e656761746976656c7920696d7061637465640000000000815250600460026200022960201b60201c565b620002086040518060400160405280600b81526020017f436f6d706c61696e7420330000000000000000000000000000000000000000008152506101c86000600673a6eed187c878bc44e88410367508e8ba6bcc246a6201343e6040518060400160405280601681526020017f62726f6b656e2070756d7020646f6f722068696e676500000000000000000000815250600160026200022960201b60201c565b6000600460006101000a81548160ff02191690831515021790555062000b4b565b600360008154809291906200023e90620005b1565b9190505550600060016000600354815260200190815260200160002090506000808773ffffffffffffffffffffffffffffffffffffffff1673ffffffffffffffffffffffffffffffffffffffff16815260200190815260200160002060009054906101000a90505060008810158015620002b9575060028811155b620002fb576040517f08c379a0000000000000000000000000000000000000000000000000000000008152600401620002f2906200065f565b60405180910390fd5b600083101580156200030e575060048311155b62000350576040517f08c379a00000000000000000000000000000000000000000000000000000000081526004016200034790620006f7565b60405180910390fd5b600082101580156200036457506003548211155b620003a6576040517f08c379a00000000000000000000000000000000000000000000000000000000081526004016200039d9062000769565b60405180910390fd5b8060405180610140016040528060035481526020018c81526020018b81526020018a81526020018981526020018873ffffffffffffffffffffffffffffffffffffffff1681526020018781526020018681526020018581526020018481525090806001815401808255809150506001900390600052602060002090600a02016000909190919091506000820151816000015560208201518160010190816200044f9190620009fb565b5060408201518160020155606082015181600301556080820151816004015560a08201518160050160006101000a81548173ffffffffffffffffffffffffffffffffffffffff021916908373ffffffffffffffffffffffffffffffffffffffff16021790555060c0820151816006015560e0820151816007019081620004d69190620009fb565b506101008201518160080155610120820151816009015550506001818054905062000502919062000ae2565b60026000600354815260200190815260200160002081905550600460009054906101000a900460ff166200056c577ffa0c9433a8799e5b5b456d5c6f97cde78cf1fa6a46cba3533e60f68e85a18d9960035460405162000563919062000b2e565b60405180910390a15b50505050505050505050565b7f4e487b7100000000000000000000000000000000000000000000000000000000600052601160045260246000fd5b6000819050919050565b6000620005be82620005a7565b91507fffffffffffffffffffffffffffffffffffffffffffffffffffffffffffffffff8203620005f357620005f262000578565b5b600182019050919050565b600082825260208201905092915050565b7f456e7472792054797065206d75737420626520302c20312c206f722032000000600082015250565b600062000647601d83620005fe565b915062000654826200060f565b602082019050919050565b600060208201905081810360008301526200067a8162000638565b9050919050565b7f456e7472792054797065206d75737420626520302c20312c20322c20332c206f60008201527f7220340000000000000000000000000000000000000000000000000000000000602082015250565b6000620006df602383620005fe565b9150620006ec8262000681565b604082019050919050565b600060208201905081810360008301526200071281620006d0565b9050919050565b7f496e76616c6964204c696e6b656420436f6d706c61696e742049440000000000600082015250565b600062000751601b83620005fe565b91506200075e8262000719565b602082019050919050565b60006020820190508181036000830152620007848162000742565b9050919050565b600081519050919050565b7f4e487b7100000000000000000000000000000000000000000000000000000000600052604160045260246000fd5b7f4e487b7100000000000000000000000000000000000000000000000000000000600052602260045260246000fd5b600060028204905060018216806200080d57607f821691505b602082108103620008235762000822620007c5565b5b50919050565b60008190508160005260206000209050919050565b60006020601f8301049050919050565b600082821b905092915050565b6000600883026200088d7fffffffffffffffffffffffffffffffffffffffffffffffffffffffffffffffff826200084e565b6200089986836200084e565b95508019841693508086168417925050509392505050565b6000819050919050565b6000620008dc620008d6620008d084620005a7565b620008b1565b620005a7565b9050919050565b6000819050919050565b620008f883620008bb565b620009106200090782620008e3565b8484546200085b565b825550505050565b600090565b6200092762000918565b62000934818484620008ed565b505050565b5b818110156200095c57620009506000826200091d565b6001810190506200093a565b5050565b601f821115620009ab57620009758162000829565b62000980846200083e565b8101602085101562000990578190505b620009a86200099f856200083e565b83018262000939565b50505b505050565b600082821c905092915050565b6000620009d060001984600802620009b0565b1980831691505092915050565b6000620009eb8383620009bd565b9150826002028217905092915050565b62000a06826200078b565b67ffffffffffffffff81111562000a225762000a2162000796565b5b62000a2e8254620007f4565b62000a3b82828562000960565b600060209050601f83116001811462000a73576000841562000a5e578287015190505b62000a6a8582620009dd565b86555062000ada565b601f19841662000a838662000829565b60005b8281101562000aad5784890151825560018201915060208501945060208101905062000a86565b8683101562000acd578489015162000ac9601f891682620009bd565b8355505b6001600288020188555050505b505050505050565b600062000aef82620005a7565b915062000afc83620005a7565b925082820390508181111562000b175762000b1662000578565b5b92915050565b62000b2881620005a7565b82525050565b600060208201905062000b45600083018462000b1d565b92915050565b6116228062000b5b6000396000f3fe608060405234801561001057600080fd5b50600436106100935760003560e01c8063ab4ccf0111610066578063ab4ccf0114610161578063bf9c50011461017f578063c59b0203146101af578063d09685b0146101cb578063dee8ae43146101e957610093565b806317b937e6146100985780635124f636146100d1578063545a153a146101015780636b8ff57414610131575b600080fd5b6100b260048036038101906100ad9190610a80565b610219565b6040516100c89a99989796959493929190610ba0565b60405180910390f35b6100eb60048036038101906100e69190610c4a565b6103ba565b6040516100f89190610c77565b60405180910390f35b61011b60048036038101906101169190610c4a565b6103dd565b6040516101289190610c77565b60405180910390f35b61014b60048036038101906101469190610c4a565b610409565b6040516101589190610c92565b60405180910390f35b61016961042b565b6040516101769190610c77565b60405180910390f35b61019960048036038101906101949190610ce0565b610431565b6040516101a69190610d0d565b60405180910390f35b6101c960048036038101906101c49190610e5d565b610464565b005b6101d361079c565b6040516101e09190610c77565b60405180910390f35b61020360048036038101906101fe9190610c4a565b6107a6565b60405161021091906110a8565b60405180910390f35b6001602052816000526040600020818154811061023557600080fd5b90600052602060002090600a02016000915091505080600001549080600101805461025f906110f9565b80601f016020809104026020016040519081016040528092919081815260200182805461028b906110f9565b80156102d85780601f106102ad576101008083540402835291602001916102d8565b820191906000526020600020905b8154815290600101906020018083116102bb57829003601f168201915b5050505050908060020154908060030154908060040154908060050160009054906101000a900473ffffffffffffffffffffffffffffffffffffffff169080600601549080600701805461032b906110f9565b80601f0160208091040260200160405190810160405280929190818152602001828054610357906110f9565b80156103a45780601f10610379576101008083540402835291602001916103a4565b820191906000526020600020905b81548152906001019060200180831161038757829003601f168201915b505050505090806008015490806009015490508a565b60006103c46109cd565b6103cd836107a6565b9050806101200151915050919050565b60006103e76109cd565b60006103f2846107a6565b915081600001519050816000015192505050919050565b60606104136109cd565b61041c836107a6565b90508060200151915050919050565b60035481565b60006020528060005260406000206000915054906101000a900473ffffffffffffffffffffffffffffffffffffffff1681565b6003600081548092919061047790611159565b9190505550600060016000600354815260200190815260200160002090506000808773ffffffffffffffffffffffffffffffffffffffff1673ffffffffffffffffffffffffffffffffffffffff16815260200190815260200160002060009054906101000a905050600088101580156104f1575060028811155b610530576040517f08c379a0000000000000000000000000000000000000000000000000000000008152600401610527906111ed565b60405180910390fd5b60008310158015610542575060048311155b610581576040517f08c379a00000000000000000000000000000000000000000000000000000000081526004016105789061127f565b60405180910390fd5b6000821015801561059457506003548211155b6105d3576040517f08c379a00000000000000000000000000000000000000000000000000000000081526004016105ca906112eb565b60405180910390fd5b8060405180610140016040528060035481526020018c81526020018b81526020018a81526020018981526020018873ffffffffffffffffffffffffffffffffffffffff1681526020018781526020018681526020018581526020018481525090806001815401808255809150506001900390600052602060002090600a020160009091909190915060008201518160000155602082015181600101908161067a91906114b7565b5060408201518160020155606082015181600301556080820151816004015560a08201518160050160006101000a81548173ffffffffffffffffffffffffffffffffffffffff021916908373ffffffffffffffffffffffffffffffffffffffff16021790555060c0820151816006015560e08201518160070190816106ff91906114b7565b50610100820151816008015561012082015181600901555050600181805490506107299190611589565b60026000600354815260200190815260200160002081905550600460009054906101000a900460ff16610790577ffa0c9433a8799e5b5b456d5c6f97cde78cf1fa6a46cba3533e60f68e85a18d996003546040516107879190610c77565b60405180910390a15b50505050505050505050565b6000600354905090565b6107ae6109cd565b6000600260008481526020019081526020016000205490506001600084815260200190815260200160002081815481106107eb576107ea6115bd565b5b90600052602060002090600a0201604051806101400160405290816000820154815260200160018201805461081f906110f9565b80601f016020809104026020016040519081016040528092919081815260200182805461084b906110f9565b80156108985780601f1061086d57610100808354040283529160200191610898565b820191906000526020600020905b81548152906001019060200180831161087b57829003601f168201915b505050505081526020016002820154815260200160038201548152602001600482015481526020016005820160009054906101000a900473ffffffffffffffffffffffffffffffffffffffff1673ffffffffffffffffffffffffffffffffffffffff1673ffffffffffffffffffffffffffffffffffffffff1681526020016006820154815260200160078201805461092f906110f9565b80601f016020809104026020016040519081016040528092919081815260200182805461095b906110f9565b80156109a85780601f1061097d576101008083540402835291602001916109a8565b820191906000526020600020905b81548152906001019060200180831161098b57829003601f168201915b5050505050815260200160088201548152602001600982015481525050915050919050565b6040518061014001604052806000815260200160608152602001600081526020016000815260200160008152602001600073ffffffffffffffffffffffffffffffffffffffff168152602001600081526020016060815260200160008152602001600081525090565b6000604051905090565b600080fd5b600080fd5b6000819050919050565b610a5d81610a4a565b8114610a6857600080fd5b50565b600081359050610a7a81610a54565b92915050565b60008060408385031215610a9757610a96610a40565b5b6000610aa585828601610a6b565b9250506020610ab685828601610a6b565b9150509250929050565b610ac981610a4a565b82525050565b600081519050919050565b600082825260208201905092915050565b60005b83811015610b09578082015181840152602081019050610aee565b60008484015250505050565b6000601f19601f8301169050919050565b6000610b3182610acf565b610b3b8185610ada565b9350610b4b818560208601610aeb565b610b5481610b15565b840191505092915050565b600073ffffffffffffffffffffffffffffffffffffffff82169050919050565b6000610b8a82610b5f565b9050919050565b610b9a81610b7f565b82525050565b600061014082019050610bb6600083018d610ac0565b8181036020830152610bc8818c610b26565b9050610bd7604083018b610ac0565b610be4606083018a610ac0565b610bf16080830189610ac0565b610bfe60a0830188610b91565b610c0b60c0830187610ac0565b81810360e0830152610c1d8186610b26565b9050610c2d610100830185610ac0565b610c3b610120830184610ac0565b9b9a5050505050505050505050565b600060208284031215610c6057610c5f610a40565b5b6000610c6e84828501610a6b565b91505092915050565b6000602082019050610c8c6000830184610ac0565b92915050565b60006020820190508181036000830152610cac8184610b26565b905092915050565b610cbd81610b7f565b8114610cc857600080fd5b50565b600081359050610cda81610cb4565b92915050565b600060208284031215610cf657610cf5610a40565b5b6000610d0484828501610ccb565b91505092915050565b6000602082019050610d226000830184610b91565b92915050565b600080fd5b600080fd5b7f4e487b7100000000000000000000000000000000000000000000000000000000600052604160045260246000fd5b610d6a82610b15565b810181811067ffffffffffffffff82111715610d8957610d88610d32565b5b80604052505050565b6000610d9c610a36565b9050610da88282610d61565b919050565b600067ffffffffffffffff821115610dc857610dc7610d32565b5b610dd182610b15565b9050602081019050919050565b82818337600083830152505050565b6000610e00610dfb84610dad565b610d92565b905082815260208101848484011115610e1c57610e1b610d2d565b5b610e27848285610dde565b509392505050565b600082601f830112610e4457610e43610d28565b5b8135610e54848260208601610ded565b91505092915050565b60008060008060008060008060006101208a8c031215610e8057610e7f610a40565b5b60008a013567ffffffffffffffff811115610e9e57610e9d610a45565b5b610eaa8c828d01610e2f565b9950506020610ebb8c828d01610a6b565b9850506040610ecc8c828d01610a6b565b9750506060610edd8c828d01610a6b565b9650506080610eee8c828d01610ccb565b95505060a0610eff8c828d01610a6b565b94505060c08a013567ffffffffffffffff811115610f2057610f1f610a45565b5b610f2c8c828d01610e2f565b93505060e0610f3d8c828d01610a6b565b925050610100610f4f8c828d01610a6b565b9150509295985092959850929598565b610f6881610a4a565b82525050565b600082825260208201905092915050565b6000610f8a82610acf565b610f948185610f6e565b9350610fa4818560208601610aeb565b610fad81610b15565b840191505092915050565b610fc181610b7f565b82525050565b600061014083016000830151610fe06000860182610f5f565b5060208301518482036020860152610ff88282610f7f565b915050604083015161100d6040860182610f5f565b5060608301516110206060860182610f5f565b5060808301516110336080860182610f5f565b5060a083015161104660a0860182610fb8565b5060c083015161105960c0860182610f5f565b5060e083015184820360e08601526110718282610f7f565b915050610100830151611088610100860182610f5f565b5061012083015161109d610120860182610f5f565b508091505092915050565b600060208201905081810360008301526110c28184610fc7565b905092915050565b7f4e487b7100000000000000000000000000000000000000000000000000000000600052602260045260246000fd5b6000600282049050600182168061111157607f821691505b602082108103611124576111236110ca565b5b50919050565b7f4e487b7100000000000000000000000000000000000000000000000000000000600052601160045260246000fd5b600061116482610a4a565b91507fffffffffffffffffffffffffffffffffffffffffffffffffffffffffffffffff82036111965761119561112a565b5b600182019050919050565b7f456e7472792054797065206d75737420626520302c20312c206f722032000000600082015250565b60006111d7601d83610ada565b91506111e2826111a1565b602082019050919050565b60006020820190508181036000830152611206816111ca565b9050919050565b7f456e7472792054797065206d75737420626520302c20312c20322c20332c206f60008201527f7220340000000000000000000000000000000000000000000000000000000000602082015250565b6000611269602383610ada565b91506112748261120d565b604082019050919050565b600060208201905081810360008301526112988161125c565b9050919050565b7f496e76616c6964204c696e6b656420436f6d706c61696e742049440000000000600082015250565b60006112d5601b83610ada565b91506112e08261129f565b602082019050919050565b60006020820190508181036000830152611304816112c8565b9050919050565b60008190508160005260206000209050919050565b60006020601f8301049050919050565b600082821b905092915050565b60006008830261136d7fffffffffffffffffffffffffffffffffffffffffffffffffffffffffffffffff82611330565b6113778683611330565b95508019841693508086168417925050509392505050565b6000819050919050565b60006113b46113af6113aa84610a4a565b61138f565b610a4a565b9050919050565b6000819050919050565b6113ce83611399565b6113e26113da826113bb565b84845461133d565b825550505050565b600090565b6113f76113ea565b6114028184846113c5565b505050565b5b818110156114265761141b6000826113ef565b600181019050611408565b5050565b601f82111561146b5761143c8161130b565b61144584611320565b81016020851015611454578190505b61146861146085611320565b830182611407565b50505b505050565b600082821c905092915050565b600061148e60001984600802611470565b1980831691505092915050565b60006114a7838361147d565b9150826002028217905092915050565b6114c082610acf565b67ffffffffffffffff8111156114d9576114d8610d32565b5b6114e382546110f9565b6114ee82828561142a565b600060209050601f831160018114611521576000841561150f578287015190505b611519858261149b565b865550611581565b601f19841661152f8661130b565b60005b8281101561155757848901518255600182019150602085019450602081019050611532565b868310156115745784890151611570601f89168261147d565b8355505b6001600288020188555050505b505050505050565b600061159482610a4a565b915061159f83610a4a565b92508282039050818111156115b7576115b661112a565b5b92915050565b7f4e487b7100000000000000000000000000000000000000000000000000000000600052603260045260246000fdfea26469706673582212207f6e4ac0f3bec12013162b39f7d484c88fe3dae5b4951185766f41a023f8f00964736f6c63430008130033",
  "immutableReferences": {},
  "source": "// SPDX-License-Identifier: MIT\npragma solidity >=0.8.19;\npragma experimental ABIEncoderV2;\n\nimport \"@openzeppelin/contracts/utils/Strings.sol\";\n// using Strings for uint256;\n\ncontract Complaint {\n    // Model a complaint\n    struct complaintEntry {\n        uint id;\n        string name;\n        uint capa;\n        uint entryType; // 0 = complaint, 1 = addition, 2 = closure\n        uint product;\n        address reporter;\n        uint site;\n        string description;\n        uint impact; // 0 = observation, 1 = low, 2 = moderate, 3 = high, 4 = SAFETY\n        uint linkedComplaint;\n    }\n    // Store accounts that have logged complaints\n    mapping(address => address) public authors;\n    // Store entry\n    mapping(uint => complaintEntry[]) public entries;\n    mapping(uint => uint) private entriesIndex;\n    // Store entry count\n    uint public entriesCount;\n    // populate with test data\n    bool addingTestData = true;\n\n    // submit event\n    event submitEvent (\n        uint id\n    );\n\n    // Constructor, initialize with some faked complaint data\n    constructor () public {\n        // initialize with some existing complaints\n        submitComplaintEntry(\"Complaint 1\"\n               , 0\n               , 0\n               , 3\n               , 0xF0b16e178270FE7E0d42dA2151ef99ba5a50b6Cc\n               , 12345\n               , \"Disposable kit lure failure\"\n               , 3\n               , 1);\n        submitComplaintEntry(\"Complaint 2\"\n               , 123\n               , 1\n               , 3\n               , 0xF0b16e178270FE7E0d42dA2151ef99ba5a50b6Cc\n               , 12345\n               , \"patient negatively impacted\"\n               , 4\n               , 2);\n        submitComplaintEntry(\"Complaint 3\"\n               , 456\n               , 0\n               , 6\n               , 0xA6Eed187C878Bc44E88410367508E8Ba6Bcc246a\n               , 78910\n               , \"broken pump door hinge\"\n               , 1\n               , 2);\n        addingTestData = false;\n    }\n\n    // Get the current count of all complaints\n    function getEntriesCount () public view returns (uint) {\n        return entriesCount;\n    }\n\n    // Add a complaint entry\n    function submitComplaintEntry (string memory _name\n                     , uint _capa\n                     , uint _entryType\n                     , uint _product\n                     , address _reporter\n                     , uint _site\n                     , string memory _description\n                     , uint _impact\n                     , uint _linkedComplaint) public {\n        entriesCount++;\n        complaintEntry[] storage entryList = entries[entriesCount];\n        authors[_reporter];\n        // check _entryType is valid - must be 0, 1, 2\n        require(_entryType >= 0 && _entryType <= 2, \"Entry Type must be 0, 1, or 2\");\n        // check _impactType is valid - must be 0, 1, 2, 3, 4\n        require(_impact >= 0 && _impact <= 4, \"Entry Type must be 0, 1, 2, 3, or 4\");\n        // check _linkedComplaint is valid\n        require(_linkedComplaint >= 0 && _linkedComplaint <= entriesCount,\"Invalid Linked Complaint ID\");\n        // add to chain\n        entryList.push(complaintEntry(entriesCount\n                                    , _name\n                                    , _capa\n                                    , _entryType\n                                    , _product\n                                    , _reporter\n                                    , _site\n                                    , _description\n                                    , _impact\n                                    , _linkedComplaint));\n        entriesIndex[entriesCount] = entryList.length - 1;\n        if(!addingTestData) {\n            emit submitEvent(entriesCount);\n        }\n    }\n\n    // Get a complaint entry with an index / id\n    function getComplaint (uint complaintIndex) public view returns (complaintEntry memory) {\n        uint entryIndex = entriesIndex[complaintIndex];        \n        return entries[complaintIndex][entryIndex];\n    }\n\n    // Get the name of a complaint entry with an index / id\n    function getName (uint complaintIndex) public view returns (string memory) {\n        complaintEntry memory thisComplaint;\n        thisComplaint  = getComplaint(complaintIndex);\n        return thisComplaint.name;\n    }\n    \n    // Get the id of a complaint entry with an index / id\n    function getId (uint complaintIndex) public view returns (uint) {\n        complaintEntry memory thisComplaint;\n        uint returnId = 0;\n        thisComplaint  = getComplaint(complaintIndex);\n        returnId = thisComplaint.id;\n        return thisComplaint.id;\n    }\n\n    // Get the id of a linked complaint entry with an index / id\n    function getLinkedComplaint (uint complaintIndex) public view returns (uint) {\n        complaintEntry memory thisComplaint;\n        thisComplaint  = getComplaint(complaintIndex);\n        return thisComplaint.linkedComplaint;\n    }\n\n    // // TODO: complete function to print all linked Entries\n    // function retrieveEntry () public  view returns (string[2][] memory) {\n    //             complaintEntry memory thisComplaint;\n    //     thisComplaint  = getComplaint(complaintIndex);\n    //     return results;\n    // }\n}",
  "sourcePath": "/mnt/c/Users/Katrina/Documents/School/CSCI5240/complaint-tracking-dapp/pet-shop-tutorial/contracts/Complaint.sol",
  "compiler": {
    "name": "solc",
    "version": "0.8.19+commit.7dd6d404.Emscripten.clang"
  },
  "schemaVersion": "3.4.13",
  "updatedAt": "2023-04-27T01:32:10.393Z",
  "networkType": "ethereum",
  "devdoc": {
    "kind": "dev",
    "methods": {},
    "version": 1
  },
  "userdoc": {
    "kind": "user",
    "methods": {},
    "version": 1
  }
}